{
  "_format": "hh-sol-artifact-1",
  "contractName": "WavePortal",
  "sourceName": "contracts/WavePortal.sol",
  "abi": [
    {
      "inputs": [],
      "stateMutability": "payable",
      "type": "constructor"
    },
    {
      "anonymous": false,
      "inputs": [
        {
          "indexed": true,
          "internalType": "address",
          "name": "payee",
          "type": "address"
        },
        {
          "indexed": false,
          "internalType": "uint256",
          "name": "payAmount",
          "type": "uint256"
        }
      ],
      "name": "Deposited",
      "type": "event"
    },
    {
      "anonymous": false,
      "inputs": [
        {
          "indexed": true,
          "internalType": "address",
          "name": "from",
          "type": "address"
        },
        {
          "indexed": false,
          "internalType": "uint256",
          "name": "jackpotValue",
          "type": "uint256"
        },
        {
          "indexed": false,
          "internalType": "bool",
          "name": "result",
          "type": "bool"
        }
      ],
      "name": "Jackpot",
      "type": "event"
    },
    {
      "anonymous": false,
      "inputs": [
        {
          "indexed": true,
          "internalType": "address",
          "name": "from",
          "type": "address"
        },
        {
          "indexed": false,
          "internalType": "uint256",
          "name": "timestamp",
          "type": "uint256"
        },
        {
          "indexed": false,
          "internalType": "string",
          "name": "message",
          "type": "string"
        }
      ],
      "name": "NewWave",
      "type": "event"
    },
    {
      "anonymous": false,
      "inputs": [
        {
          "indexed": true,
          "internalType": "address",
          "name": "payee",
          "type": "address"
        },
        {
          "indexed": false,
          "internalType": "uint256",
          "name": "payAmount",
          "type": "uint256"
        }
      ],
      "name": "Withdrawn",
      "type": "event"
    },
    {
      "inputs": [],
      "name": "deposit",
      "outputs": [],
      "stateMutability": "payable",
      "type": "function"
    },
    {
      "inputs": [],
      "name": "getAllWaves",
      "outputs": [
        {
          "components": [
            {
              "internalType": "address",
              "name": "waver",
              "type": "address"
            },
            {
              "internalType": "string",
              "name": "message",
              "type": "string"
            },
            {
              "internalType": "uint256",
              "name": "timestamp",
              "type": "uint256"
            }
          ],
          "internalType": "struct WavePortal.Wave[]",
          "name": "",
          "type": "tuple[]"
        }
      ],
      "stateMutability": "view",
      "type": "function"
    },
    {
      "inputs": [],
      "name": "getJackpot",
      "outputs": [
        {
          "internalType": "uint256",
          "name": "",
          "type": "uint256"
        }
      ],
      "stateMutability": "view",
      "type": "function"
    },
    {
      "inputs": [],
      "name": "getTotalWaves",
      "outputs": [
        {
          "internalType": "uint256",
          "name": "",
          "type": "uint256"
        }
      ],
      "stateMutability": "view",
      "type": "function"
    },
    {
      "inputs": [
        {
          "internalType": "address",
          "name": "",
          "type": "address"
        }
      ],
      "name": "lastWaveAt",
      "outputs": [
        {
          "internalType": "uint256",
          "name": "",
          "type": "uint256"
        }
      ],
      "stateMutability": "view",
      "type": "function"
    },
    {
      "inputs": [],
      "name": "playJackpot",
      "outputs": [],
      "stateMutability": "payable",
      "type": "function"
    },
    {
      "inputs": [
        {
          "internalType": "string",
          "name": "_message",
          "type": "string"
        }
      ],
      "name": "wave",
      "outputs": [],
      "stateMutability": "nonpayable",
      "type": "function"
    }
  ],
  "bytecode": "0x60806040526000600155620000546040518060400160405280602081526020017f48657265206973206d7920666972737420736d61727420636f6e7472616374218152506200007c60201b620009771760201c565b60644442620000649190620001c9565b62000070919062000266565b6002819055506200030d565b6200011c8160405160240162000093919062000189565b6040516020818303038152906040527f41304fac000000000000000000000000000000000000000000000000000000007bffffffffffffffffffffffffffffffffffffffffffffffffffffffff19166020820180517bffffffffffffffffffffffffffffffffffffffffffffffffffffffff83818316178352505050506200011f60201b60201c565b50565b60008151905060006a636f6e736f6c652e6c6f679050602083016000808483855afa5050505050565b60006200015582620001ad565b620001618185620001b8565b93506200017381856020860162000230565b6200017e81620002fc565b840191505092915050565b60006020820190508181036000830152620001a5818462000148565b905092915050565b600081519050919050565b600082825260208201905092915050565b6000620001d68262000226565b9150620001e38362000226565b9250827fffffffffffffffffffffffffffffffffffffffffffffffffffffffffffffffff038211156200021b576200021a6200029e565b5b828201905092915050565b6000819050919050565b60005b838110156200025057808201518184015260208101905062000233565b8381111562000260576000848401525b50505050565b6000620002738262000226565b9150620002808362000226565b925082620002935762000292620002cd565b5b828206905092915050565b7f4e487b7100000000000000000000000000000000000000000000000000000000600052601160045260246000fd5b7f4e487b7100000000000000000000000000000000000000000000000000000000600052601260045260246000fd5b6000601f19601f8301169050919050565b611554806200031d6000396000f3fe6080604052600436106100705760003560e01c8063bd43a9081161004e578063bd43a908146100f4578063c1ac79021461011f578063cb19950314610129578063d0e30db01461016657610070565b8063449d46c0146100755780639329066c1461009e5780639a2cdc08146100c9575b600080fd5b34801561008157600080fd5b5061009c60048036038101906100979190610cba565b610170565b005b3480156100aa57600080fd5b506100b3610529565b6040516100c09190611036565b60405180910390f35b3480156100d557600080fd5b506100de610533565b6040516100eb9190611036565b60405180910390f35b34801561010057600080fd5b5061010961053c565b6040516101169190610f32565b60405180910390f35b61012761068d565b005b34801561013557600080fd5b50610150600480360381019061014b9190610c91565b61089d565b60405161015d9190611036565b60405180910390f35b61016e6108b5565b005b426000600460003373ffffffffffffffffffffffffffffffffffffffff1673ffffffffffffffffffffffffffffffffffffffff168152602001908152602001600020546101bd9190611171565b106101fd576040517f08c379a00000000000000000000000000000000000000000000000000000000081526004016101f490611016565b60405180910390fd5b42600460003373ffffffffffffffffffffffffffffffffffffffff1673ffffffffffffffffffffffffffffffffffffffff1681526020019081526020016000208190555060016000808282546102539190611171565b925050819055506102996040518060400160405280600d81526020017f257320686173207761766564210000000000000000000000000000000000000081525033610a10565b600360405180606001604052803373ffffffffffffffffffffffffffffffffffffffff16815260200183815260200142815250908060018154018082558091505060019003906000526020600020906003020160009091909190915060008201518160000160006101000a81548173ffffffffffffffffffffffffffffffffffffffff021916908373ffffffffffffffffffffffffffffffffffffffff1602179055506020820151816001019080519060200190610358929190610b71565b50604082015181600201555050606460025442446103769190611171565b6103809190611171565b61038a919061133f565b6002819055506032600254116104d6576103d96040518060400160405280600781526020017f257320776f6e210000000000000000000000000000000000000000000000000081525033610a10565b6000655af3107a4000905047811115610427576040517f08c379a000000000000000000000000000000000000000000000000000000000815260040161041e90610fd6565b60405180910390fd5b60003373ffffffffffffffffffffffffffffffffffffffff168260405161044d90610f1d565b60006040518083038185875af1925050503d806000811461048a576040519150601f19603f3d011682016040523d82523d6000602084013e61048f565b606091505b50509050806104d3576040517f08c379a00000000000000000000000000000000000000000000000000000000081526004016104ca90610ff6565b60405180910390fd5b50505b3373ffffffffffffffffffffffffffffffffffffffff167f5f7e16dc676677766a70e9c5628aa6c54ddb8b6e5188e2ae1e1f17f1ffbea716428360405161051e92919061107a565b60405180910390a250565b6000600154905090565b60008054905090565b60606003805480602002602001604051908101604052809291908181526020016000905b8282101561068457838290600052602060002090600302016040518060600160405290816000820160009054906101000a900473ffffffffffffffffffffffffffffffffffffffff1673ffffffffffffffffffffffffffffffffffffffff1673ffffffffffffffffffffffffffffffffffffffff1681526020016001820180546105e9906112dc565b80601f0160208091040260200160405190810160405280929190818152602001828054610615906112dc565b80156106625780601f1061063757610100808354040283529160200191610662565b820191906000526020600020905b81548152906001019060200180831161064557829003601f168201915b5050505050815260200160028201548152505081526020019060010190610560565b50505050905090565b606460553461069c91906111f8565b6106a691906111c7565b600160008282546106b79190611171565b925050819055503373ffffffffffffffffffffffffffffffffffffffff167f2da466a7b24304f47e87fa2e1e5a81b9831ce54fec19055ce277ca2f39ba42c4346040516107049190611036565b60405180910390a26064600254424461071d9190611171565b6107279190611171565b610731919061133f565b6002819055506000601460025411610848576001905060006001549050600060018190555047811115610799576040517f08c379a000000000000000000000000000000000000000000000000000000000815260040161079090610fd6565b60405180910390fd5b60003373ffffffffffffffffffffffffffffffffffffffff16826040516107bf90610f1d565b60006040518083038185875af1925050503d80600081146107fc576040519150601f19603f3d011682016040523d82523d6000602084013e610801565b606091505b5050905080610845576040517f08c379a000000000000000000000000000000000000000000000000000000000815260040161083c90610ff6565b60405180910390fd5b50505b3373ffffffffffffffffffffffffffffffffffffffff167f4241500565ff2cd2bb802e13a8e0ba82ff78989d8fb79321f1336994c1247ad760015483604051610892929190611051565b60405180910390a250565b60046020528060005260406000206000915090505481565b60056004346108c491906111f8565b6108ce91906111c7565b600160008282546108df9190611171565b925050819055506109276040518060400160405280600a81526020017f6a61636b706f7420257300000000000000000000000000000000000000000000815250600154610aac565b3373ffffffffffffffffffffffffffffffffffffffff167f2da466a7b24304f47e87fa2e1e5a81b9831ce54fec19055ce277ca2f39ba42c43460405161096d9190611036565b60405180910390a2565b610a0d8160405160240161098b9190610f54565b6040516020818303038152906040527f41304fac000000000000000000000000000000000000000000000000000000007bffffffffffffffffffffffffffffffffffffffffffffffffffffffff19166020820180517bffffffffffffffffffffffffffffffffffffffffffffffffffffffff8381831617835250505050610b48565b50565b610aa88282604051602401610a26929190610f76565b6040516020818303038152906040527f319af333000000000000000000000000000000000000000000000000000000007bffffffffffffffffffffffffffffffffffffffffffffffffffffffff19166020820180517bffffffffffffffffffffffffffffffffffffffffffffffffffffffff8381831617835250505050610b48565b5050565b610b448282604051602401610ac2929190610fa6565b6040516020818303038152906040527f9710a9d0000000000000000000000000000000000000000000000000000000007bffffffffffffffffffffffffffffffffffffffffffffffffffffffff19166020820180517bffffffffffffffffffffffffffffffffffffffffffffffffffffffff8381831617835250505050610b48565b5050565b60008151905060006a636f6e736f6c652e6c6f679050602083016000808483855afa5050505050565b828054610b7d906112dc565b90600052602060002090601f016020900481019282610b9f5760008555610be6565b82601f10610bb857805160ff1916838001178555610be6565b82800160010185558215610be6579182015b82811115610be5578251825591602001919060010190610bca565b5b509050610bf39190610bf7565b5090565b5b80821115610c10576000816000905550600101610bf8565b5090565b6000610c27610c22846110cf565b6110aa565b905082815260208101848484011115610c3f57600080fd5b610c4a84828561129a565b509392505050565b600081359050610c6181611507565b92915050565b600082601f830112610c7857600080fd5b8135610c88848260208601610c14565b91505092915050565b600060208284031215610ca357600080fd5b6000610cb184828501610c52565b91505092915050565b600060208284031215610ccc57600080fd5b600082013567ffffffffffffffff811115610ce657600080fd5b610cf284828501610c67565b91505092915050565b6000610d078383610eaf565b905092915050565b610d1881611252565b82525050565b610d2781611252565b82525050565b6000610d3882611110565b610d428185611133565b935083602082028501610d5485611100565b8060005b85811015610d905784840389528151610d718582610cfb565b9450610d7c83611126565b925060208a01995050600181019050610d58565b50829750879550505050505092915050565b610dab81611264565b82525050565b6000610dbc8261111b565b610dc6818561114f565b9350610dd68185602086016112a9565b610ddf8161142c565b840191505092915050565b6000610df58261111b565b610dff8185611160565b9350610e0f8185602086016112a9565b610e188161142c565b840191505092915050565b6000610e30603483611160565b9150610e3b8261143d565b604082019050919050565b6000610e53602783611160565b9150610e5e8261148c565b604082019050919050565b6000610e76600083611144565b9150610e81826114db565b600082019050919050565b6000610e99600883611160565b9150610ea4826114de565b602082019050919050565b6000606083016000830151610ec76000860182610d0f565b5060208301518482036020860152610edf8282610db1565b9150506040830151610ef46040860182610eff565b508091505092915050565b610f0881611290565b82525050565b610f1781611290565b82525050565b6000610f2882610e69565b9150819050919050565b60006020820190508181036000830152610f4c8184610d2d565b905092915050565b60006020820190508181036000830152610f6e8184610dea565b905092915050565b60006040820190508181036000830152610f908185610dea565b9050610f9f6020830184610d1e565b9392505050565b60006040820190508181036000830152610fc08185610dea565b9050610fcf6020830184610f0e565b9392505050565b60006020820190508181036000830152610fef81610e23565b9050919050565b6000602082019050818103600083015261100f81610e46565b9050919050565b6000602082019050818103600083015261102f81610e8c565b9050919050565b600060208201905061104b6000830184610f0e565b92915050565b60006040820190506110666000830185610f0e565b6110736020830184610da2565b9392505050565b600060408201905061108f6000830185610f0e565b81810360208301526110a18184610dea565b90509392505050565b60006110b46110c5565b90506110c0828261130e565b919050565b6000604051905090565b600067ffffffffffffffff8211156110ea576110e96113fd565b5b6110f38261142c565b9050602081019050919050565b6000819050602082019050919050565b600081519050919050565b600081519050919050565b6000602082019050919050565b600082825260208201905092915050565b600081905092915050565b600082825260208201905092915050565b600082825260208201905092915050565b600061117c82611290565b915061118783611290565b9250827fffffffffffffffffffffffffffffffffffffffffffffffffffffffffffffffff038211156111bc576111bb611370565b5b828201905092915050565b60006111d282611290565b91506111dd83611290565b9250826111ed576111ec61139f565b5b828204905092915050565b600061120382611290565b915061120e83611290565b9250817fffffffffffffffffffffffffffffffffffffffffffffffffffffffffffffffff048311821515161561124757611246611370565b5b828202905092915050565b600061125d82611270565b9050919050565b60008115159050919050565b600073ffffffffffffffffffffffffffffffffffffffff82169050919050565b6000819050919050565b82818337600083830152505050565b60005b838110156112c75780820151818401526020810190506112ac565b838111156112d6576000848401525b50505050565b600060028204905060018216806112f457607f821691505b60208210811415611308576113076113ce565b5b50919050565b6113178261142c565b810181811067ffffffffffffffff82111715611336576113356113fd565b5b80604052505050565b600061134a82611290565b915061135583611290565b9250826113655761136461139f565b5b828206905092915050565b7f4e487b7100000000000000000000000000000000000000000000000000000000600052601160045260246000fd5b7f4e487b7100000000000000000000000000000000000000000000000000000000600052601260045260246000fd5b7f4e487b7100000000000000000000000000000000000000000000000000000000600052602260045260246000fd5b7f4e487b7100000000000000000000000000000000000000000000000000000000600052604160045260246000fd5b6000601f19601f8301169050919050565b7f547279696e6720746f207769746864726177206d6f7265206d6f6e657920746860008201527f616e2074686520636f6e7472616374206861732e000000000000000000000000602082015250565b7f4661696c656420746f207769746864726177206d6f6e65792066726f6d20636f60008201527f6e74726163742e00000000000000000000000000000000000000000000000000602082015250565b50565b7f576169742031356d000000000000000000000000000000000000000000000000600082015250565b61151081611252565b811461151b57600080fd5b5056fea2646970667358221220ddbbe25dbb537a68f72b10368327c5db46d0f2483b4ddc68c61f73c53fd5d38564736f6c63430008040033",
  "linkReferences": {},
  "deployedLinkReferences": {}
}